:020000040800F2
:1000000000A00020F5B501085F7401083D2B010830
:100010005D7401085B740108597401080000000058
:1000200000000000000000000000000057740108FC
:10003000557401080000000053740108518801083C
:100040005DB601085DB601085DB601085DB6010840
:100050005DB601085DB601083BEA00084BEA0008FE
:1000600047EA000843EA00083FEA000815FE0008D6
:100070000DFE000805FE0008FDFD0008F5FD000866
:10008000EDFD0008E5FD00085DB601085DB601085C
:10009000957501085DB601085DB601083DEA0008E6
:1000A000E5A9000839AA00085DB6010829AA0008D8
:1000B00019AA000809AA00085DB601085DB6010882
:1000C0005DB601085DB601085DB601085DB60108C0
:1000D0005DB601086D7C0008657C00085D7C000849
:1000E00039EA00085DB60108FD9801085DB601080F
:1000F00005AA00085DB60108F5A900085DB601086B
:100100000000000000000000000000005DB60108D3
:100110005DB601085DB601085DB601085DB601086F
:10012000DDFD0008D5FD0008CDFD0008C5FD000877
:10013000BDFD00085DB601080000000000000000E1
:100140005DB601085DB601085DB60108000000005B
:10015000000000000000000000000000000000009F
:1001600000000000000000005DB601085DB6010857
:100170005DB6010800000000000000000000000063
:08018000000000005DB601085B
:100188002DE9F04FA24BA34A2DED068B1A60A24B26
:1001980000221A60A14B1B78702BB3B002D110F06B
:1001A80075FA18B917F0C8FE17F0CEFD17F0A2FFC0
:1001B8009B4A9C4C137843F0010313709A4B4FF4FD
:1001C8007002C3F8882000230A930B93236843F432
:1001D80080332360236803F400330B930A9B0133B5
:1001E8000A930B9B1BB90A9BB3F5A04FF2D1236866
:1001F80013F4003318BF01230B930B9B012B70D012
:100208008A4EDFF82482B378894F003318BF012360
:100218003370884BC8F80C30636A3B60636A43F0FC
:1002280080736362636943F4FC0332AD6361032343
:100238008DF87A3041F6FF7325F8503D4FF0904025
:10024800294607F04BFF4FF6FF7329467A48ADF869
:10025800783007F043FF2946784807F03FFF2946E2
:10026800774807F03BFF2946764807F037FF2946CD
:10027800754807F033FF04238DF87A3002238DF890
:100288007B3029464FF400734FF09040ADF878303A
:1002980007F024FF4FF4806329466748ADF87830AB
:1002A80007F01CFF284616F057FA1E9B674AB3FB57
:1002B800F2F3674A67481360674A684B5360F02354
:1002C80088F8233007210023936011606449654A48
:1002D80009681160B84602969146634F4FF0010EC7
:1002E8003BE0624B12221A60636863606368636074
:1002F800636843F480636360636823F47C1363601A
:10030800636843F4E8136360236843F080732360F1
:100318002268444B9201FBD55A6822F003025A60C6
:100328005A6842F002025A60636803F00C03082B13
:10033800FAD165E746FA02FC1CF0010F18BF0EFA65
:1003480002FC02F101021EBF0160A0F804C00830DF
:10035800102AEFD10133062B06D0990237F8136023
:1003680001F190410022E5E7029B4148DA78414BD0
:10037800414F1A70A369304E43F00103A361402234
:1003880000211CF071FD3D4B4FF0FF321A60C3F89D
:10039800032063694FF0010B4FF0020A43F48023F6
:1003A8008DF87AB08DF87BA063614FF48073BB80C1
:1003B800ADF878303E602946B361304607F08EFECE
:1003C8004FF40043ADF8783063698DF87AB043F4A0
:1003D80000238DF87BA029466361184807F07EFE4C
:1003E800274B284A1A6000200DF08EFFD9F80030FC
:1003F80013F0080FBB4652D0234B1A7A012A9A46AB
:100408004DD8D8F8007017F0805700F0BF8546E047
:10041800582C00205DFD00085C2C002000F003082B
:10042800383000200010024000ED00E028060020CF
:100438007C3600200005FA05000400480008004842
:10044800000C0048001000480014004840420F000B
:1004580070380020F428002010E000E03F19010067
:10046800F80D0020B45000203CD9010800200240BB
:100478007C280020BC1400204C4E00201C2A0020A0
:10048800BC28002061E10008B8500020D8F80030EE
:1004980013F0805303D1454A937215F031FE64205E
:1004A80018F07FF90021C82241481CF0DDFCE369FF
:1004B800404943F00303E361A36943F49433A36120
:1004C800636943F4C02363610F2501F1C0048B7B8A
:1004D8004868CE7B03F00702DB0800EB8303920039
:1004E800186A964005FA02F220EA02021A621A6AAB
:1004F800103132438C421A62E9D1029BD9F800408C
:100508002D480625002148221D7100271CF0ACFC4F
:10051800DFF8CCE028482B4604F040063946FF2592
:100528001EF9012F3A5407EB000C4EB91E3AD2B20D
:10053800012A9FBF03F1FF338CF80050DBB2012181
:100548000C37482FECD109B1029A137102991B4A52
:100558008A601B4A1B4911601B4A1C4B1578A70669
:100568005BBF1B4A02EBC50201225278DA60194BC5
:10057800002240F2DC5123F812100132082AFAD185
:100588001C22002117A81CF06FFC14F4007229D05B
:10059800114B0E9310930223ADF844300EAB01219A
:1005A8001D930E4BADF83C1003931CE0B85000208F
:1005B800CC2A0020D8CF0108300E0020942B002030
:1005C800942A0020900C0020180C002028060020F7
:1005D800B0DA01087C0C002000040048C4CF0108F0
:1005E80073F1010803920E2D03D005F0EF03082BD9
:1005F80002D101238DF86E30B348002300EBC3010C
:1006080091F90250022D00F0EC840133062BF5D14C
:1006180000238DF86230C4F340038DF86330C4F3CF
:10062800403300368DF85C30C4F3C03318BF012660
:100638008DF85F3014F400638DF8656004D0A34B27
:100648009B79581E434243418DF86030C4F3004300
:100658008DF86630C4F3C0038DF85E30029BDB680A
:10066800003218BF0122003318BF01238DF868300B
:10067800C4F300538DF86930029B8DF867201B8AFC
:10068800ADF86C30029B5B8AADF86A30904B04F091
:10069800010604F00805C4F380448DF864401C8901
:1006A8008DF85D60ADF8704015F0E2FBB4F5FA7FA7
:1006B8008CBF0023ADF872004FF068024FF00001C4
:1006C800844888BFADF872301CF0CEFB9DF86E30C0
:1006D800002B14BF0223002306B905B101337E4E57
:1006E8007C4C06EB83034FF0000BD3F8D4309A1EF2
:1006F800163304920693049B33F8022F04934FF6A3
:10070800FF739A4200F0BF819DF86110D3B2120ABC
:100718005FFA82F871B106EB03108169B1F1904F6D
:1007280008D1818BB1F5804F00F0A881B1F5004F59
:1007380000F0A4819DF8621071B106EB0310674DBB
:100748008169A94208D1818BB1F5806F00F096814B
:10075800B1F5006F00F092819DF8651031B106EB9C
:10076800031148695E49884200F088819DF8661047
:1007780079B106EB03105B4D4169A94200F07E8117
:100788008169B1F1904F04D190F82210082900F046
:1007980075811D98B8B11D0106EB050E0168DEF8DC
:1007A80018708F4205D1BEF81CE081888E4500F094
:1007B800658181688F4206D147490D448189AD8B97
:1007C8008D4200F05B81022A02D19DF85C2003E093
:1007D800012A04D19DF85D20002A00F04F819DF880
:1007E80068101A0161B19DF86E1049B9591F0329A3
:1007F80006D8B11848693A49884208BF4FF004083A
:1008080039498F189DF8691059B19DF86E1041B992
:10081800053B032B05D8B3185969314B994200F0B1
:100828000C81B8F1010F67D1304D06EB020AFF23A6
:100838004FF0000985F8583085F859309AF821307A
:10084800BAF81C208DF87A301EA90223DAF81800AD
:1008580085F86090EF668DF87B30ADF8782085F8E4
:100868001490C5F81890C5F81C90C5F82090C5F8E4
:10087800549085F85A9085F85B9085F85C9007F05D
:100888002DFC4A469AF81E10DAF8140009F05FFFAA
:1008980042464946384607F03BF9154B2B67154B3E
:1008A8006B6705F17402C5F8789005F17001384658
:1008B80007F078F9A37804EBC30320225A7223794E
:1008C80001332371D7E000BF845100202C0D002094
:1008D800600D00203C100020C4CF0108000400482F
:1008E80000040040002C0140D8CF01082806002051
:1008F800099C0008659D0008B8F1020F4BD1AD4B6B
:1009080007935FFA8BF11C20B518414303EB0109EB
:100918004FF0000A4FF001030591A98B89F8603068
:1009280095F8212089F861B0ADF87810A86989F8A0
:1009380062A01EA989F86AA0C9F86C708DF87A209F
:100948008DF87B8007F0CAFB5246A97F686909F0D9
:10095800FEFE01225146384607F0DAF8059B964A12
:10096800C9F87020954AC9F874201A46079BC9F837
:1009780078A0134403F170010A1D384607F012F9F4
:10098800A37804EBC30340225A72E3780133E3707F
:100998000BF1010B6FE0B8F1030F4BD19DF86430F8
:1009A800874D8BB100234FF6FF720821384694F823
:1009B800018009F023FF834B45F82800C360A37822
:1009C800192204EBC30329E0BDF8702094F80180D4
:1009D800BDF87230B2F5FA7F10D97B49B1FBF2F25B
:1009E800384692B2082109F009FF784B45F82800EB
:1009F800C360A3780D2204EBC3030FE07449B1FB75
:100A0800F2F2384692B2012109F0F8FE6D4B45F832
:100A18002800C360A378092204EBC3035A72A378A1
:100A28006278013304F8332004EBC30301325F60BA
:100A3800627020E0B8F1040F20D1BDF86A20644B41
:100A480093FBF2F20121BDF86C30257892B238465A
:100A580009F0D4FEA278574B013204EBC20103EB34
:100A680085050A234B70237804F832300133C5F822
:100A780040014F602370A3780133A370049B069A4A
:100A880093427FF438AE534B534E1D78A5F11703AC
:100A98000024022B34701BD8DFF85CE1029B9B68B2
:100AA8002344D3ED007AF5EE407AF1EE10FA03D143
:100AB800029BDB6853BB24E00FCB04EB0E0787E8EF
:100AC8000F00337810340133C02C3370E6D1EFE7D0
:100AD800424B13F835E086F800E003EBC503D3F882
:100AE80004C0BCF1000FE3D0DFF80C817445DFDAF5
:100AF800230103EB080763440FCB013487E80F0099
:100B0800F4E7374C2368D90423D41CE0354B364A24
:100B180013F835E082F800E003EBC50358680028B5
:100B2800EFD0324C00237345EBDAC3EBC301421814
:100B38000F19D2F800C041F804C09188B9809279A1
:100B4800BA710133EFE705F0EF03082B284B1FD1EB
:100B580020E03278012AF6D9264B03EB0212103234
:100B6800F6EE007A10339A42EDD013ED047A27EEB0
:100B7800277A03ED047A13ED057A27EE277A03ED39
:100B8800057A13ED037A27EE277A03ED037AE9E76E
:100B98000E2D08D11A7842F010021A70182D2DD196
:100BA8000DF0B6FF2AE01A7822F010021A70192DFB
:100BB800F5E700BF2806002095A70008E19B00087C
:100BC800982A00209D9D000800127A00AD9D00081B
:100BD80040420F00180C0020C82A0020B0DA010893
:100BE800B4500020C0D90108232A0020242A00205C
:100BF8007C0D0020CC140020C41400200EF040F816
:100C08002368DFF810827D4D7D4C7E4F5A035EBF0E
:100C18007D4B01221A7098F8003043F0040388F8DD
:100C2800003007F0C7FAEB6943F48043EB612B69A6
:100C380043F480432B616B6943F480236B61636ADF
:100C480023F470036362636A43F4A0036362636A14
:100C580023F070636362636A43F0A0636362636A4C
:100C680023F070436362636A43F0A0436362636A7C
:100C780023F470236362636A43F4A023002663624B
:100C88004FF0020B4FF400434FF0030A12A920461D
:100C9800129305934FF001098DF84CB08DF84DA0D3
:100CA8008DF84E608DF84F6015F0C6FE4FF4804207
:100CB80012A9204612928DF84F9015F0BDFE4FF400
:100CC800005212A9204612928DF84FB015F0B4FECA
:100CD8004FF4805212A92046129204928DF84C903B
:100CE8008DF84DA08DF84E608DF84F6015F0A4FE7C
:100CF800296941F480412961296921F480412961E8
:100D08004FF48271ADF87A104FF4E061ADF87C10C1
:100D18004FF40071ADF882100721ADF8881010214A
:100D2800ADF87860ADF88660ADF88410ADF87E60F7
:100D3800ADF88060B98821F480510904090CB980A4
:100D4800B98889B241F48051B98038461EA915F096
:100D5800A5FB3988049A059B89B241F04001398086
:100D6800A2612A4A07F5E05717606A6942F48022AF
:100D78006A61EA6942F40012EA612A6B22F0100201
:100D88002A632A6B42F010022A63226A22F07062F8
:100D98002262226A42F080622262226A22F0704253
:100DA8002262226A42F08042226212A923932046DC
:100DB80040238DF84F601E961F9620962196229606
:100DC80024968DF84CB08DF84DA08DF84E90129366
:100DD80015F032FE802312A92046129315F02CFE3E
:100DE800029B1F961B78209621962296249623967E
:100DF800CDF8088083B1064B0FE000BF0010024019
:100E080000040048003800408C1600202C0C0020FC
:100E1800300E500038300020B64BB7481E931EA93C
:100E280015F0B2FB3B68B549B54C43F001033B6094
:100E38000A6812F4004F4FF000090CBF002704277E
:100E4800C2F3400312F4006F43EA07030CBF4F4696
:100E580002271F434FF6FF73129302238DF84D307C
:100E680017F001064FF003038846C4F80090C4F851
:100E78000490C4F808908DF84E908DF84F908DF836
:100E88004C300DD0102312A94FF090401293012638
:100E980015F0D2FD0723267084F80190E370A67040
:100EA800BB070FD5202312A94FF09040129315F0DD
:100EB800C3FD022323710723E371012366711E44D6
:100EC800A371F6B27F070ED5042312A98D48129399
:100ED80015F0B2FD0C2323720723E3720123667217
:100EE8001E44A372F6B2EB6A8748874F23F4F8735F
:100EF800EB62EB6A43F4D873EB626B6943F080539F
:100F080043F002036B6115F0AEFB1EA815F080FBE1
:100F18007E4B1E937E4B1F93022E4FF0000334BF6F
:100F28001A46802223924FF4807224924FF48062F2
:100F380025922022384626921EA94FF4005220936B
:100F4800229327922893ADF8846015F06EFB3B68D6
:100F580043F001033B606F4FBB6823F04053BB6015
:100F6800BB6843F08053BB600A2017F01AFCBB68CB
:100F780023F08043BB60BB68BB60BB6843F00043A1
:100F8800BB60BB68634A002B31DAFAE79B7A013B06
:100F9800092B3FF684AA604B18682860294630461A
:100FA8004FF4006507F09AF8B5613C2017F0F9FB9B
:100FB8009AF80A309F42BFF669AADBF80030BBF8FE
:100FC80004209A617820358517F0E0FBDBF80030C3
:100FD800BBF804201A857820B56117F0D7FB0137D4
:100FE800E6E78B88003318BF0123FFF712BB93682D
:100FF8004A4923F040539360936843F00053936049
:101008008868474B034043F468338B60D168454B8D
:101018000B4043F40053D360136B013E23F00F03DE
:101028001E431663002001234FF0380B4FF0060CC7
:101038001F2604EB000E9EF80210002900F08580A0
:101048005F1C042B215C9EF803E0FFB20ED803EB73
:101058004303D2F830905B0006FA03FA29EA0A093A
:1010680001FA03F343EA090313632FE0092B0ED8AF
:10107800053BD2F834900CFB03F306FA03FA29EA8D
:101088000A0901FA03F343EA090353631EE00E2B2E
:101098000ED80A3BD2F838900CFB03F306FA03FA91
:1010A80029EA0A0901FA03F343EA090393630DE005
:1010B8000F3BD2F83C900CFB03F306FA03FA29EA3B
:1010C8000A0901FA03F343EA0903D36309292BD96F
:1010D8000A399369936901EB41014FF0070909FA4D
:1010E80001F923EA0903936193690EFA01F119439F
:1010F800916129E07A25E00000540040B4500020B6
:101108007D320020000400480804024040010050DD
:101118008A32002000010050B8D0010800030050B6
:10112800E010FCFF07C0FFFD01395369536901EB6B
:1011380041010BFA01F923EA0903536153690331A9
:101148000EFA01F1194351613B4604300C287FF433
:1011580070AFC34B9A6842F001029A601A46116850
:10116800BF4BC807FBD5DA6822F00202DA60DA68FA
:1011780042F00202DA60DA6842F00102DA609A6844
:1011880042F004029A60B74AB2F90030002B41F0ED
:10119800EF80B2F90210002941F0EA80B2F9041098
:1011A800002941F0E580D8F80030AF4C13F4003F37
:1011B8001CD0C82017F0F5FAAE2007F0AAF908B13C
:1011C80007F0ABF9A94E84F86001C82017F0E9FAD6
:1011D8001422002130461BF047FE0223F37013F05F
:1011E80076FC17F0B7FAA24B0344B360A14E9E4FAA
:1011F800A1484FF0000914224946C6F80090C6F8E5
:101208000490C6F808901BF02FFEC4F864919B4B1D
:10121800A4F861912320C7F86891C7F86C91C4F8C5
:10122800703117F0BEFA0DF127020121752008F080
:101238003BFEB0B1924BC7F86831924BC7F86C319E
:101248000CAA43230121484687F8643108F02CFE94
:101258009DF8303003F07E038DF8303000284FD1F0
:1012680057E097F874317BBB6A69DFF8549242F40F
:1012780080226A614FF4007A032201251EA948469C
:101288008DF87D208DF87E308DF87F30CDF878A0F0
:101298008DF87C5015F0D0FB7B4AC9F818A013884C
:1012A80023F040031B041B0C1380138823F038031E
:1012B8001B041B0C43F00803138013889BB243F0F4
:1012C8004003138087F874511EAA0121752009F084
:1012D80007F89DF87830A3F17002012A03D9AF2BE3
:1012E80001D0122B5DD1052384F86131432384F8A2
:1012F8006431664BC4F86831654BC4F86C3150E012
:10130800682B06D1012387F861311D2387F86431E2
:1013180047E09DF8273003F07E03682B8DF82730CF
:101328003AD10223062184F861311EAAD4F8683123
:10133800084698479DF87D209DF87B3092005B0019
:1013480003F0020302F004021A439DF8793003F017
:101358000103134311D0012B01D1002302E0022B1A
:1013680003D1012384F862311BE003F00303032B4C
:10137800F7D0032017F01FFA13E03B4B12AAD3F85B
:10138800683101210C2098479DF8483013F00F036D
:10139800EFD0042BE5D1E0E7702B04BF042384F8D9
:1013A800613194F861213B4B0027052A1F7040F0FA
:1013B8009F81DFF8C490384AC9F80020374AC9F835
:1013C8000420374AC9F80C2003221A70354B364DD1
:1013D80007221A70354A6978136843F001031360CD
:1013E8004846AB89A9F8103008F0A0FEAB884BB985
:1013F800214B94F861011A8A2B4B01259A8194F8A4
:1014080075217EE0B9F81030294A92FBF3F91FFAEA
:1014180089F308EE903ADFF8ACB09FED269AEB8896
:101428002989184608EE103A0FF082F8224B1FFA65
:1014380089FA0122F0EE400A5146B8EE480AD81956
:101448000FF098F8AA78012A40D1AB881B4800EE23
:10145800103A5146B8EE400A38440FF0E5F84AE031
:1014680000010050FC0D002028060020BC5100207F
:10147800404B4C004C0C0020FC330020A8D0010845
:10148800B19E0008C79E000800300140E9A200088C
:1014980059A400086E2D002035A10008539B0008B0
:1014A80090C1793D3D01002028370020340C0020F0
:1014B80040420F00DB0FC9403C2E0020E82D0020E1
:1014C80000040048C42D0020BD3786352B7907EE6F
:1014D800903AF8EEE77AF7EE006A67EE897A86EED8
:1014E800A77AF8EE687A8BED017A1FED097A67EE34
:1014F800877ACBED027A1C37542F0BF10C0B8ED167
:1015080076E70A2A134628BF002305FA03F140F2BA
:1015180002220A40DAB940F2FD120A40BAB105289F
:1015280015D1604B3360604B7360604B6048032299
:101538001A70604B08225A705F4A136843F002031E
:1015480013604FF48073338108F046FE05E0012BE9
:101558004FF00002D5D8554B1A7094F87731042B08
:1015680038D8DFE803F003400303030094F87871E8
:10157800524D002F40F08A86142017F012F905F218
:1015880079130122D021762006F0A8FE95F879314A
:10159800582B28D105F5BE7318228821762006F02D
:1015A8009DFE3122F421762006F01EFF012385F8E6
:1015B8007831434B434A9A60434A5A6045F6D812F9
:1015C8005A80424ADA60424A1A61424A1F805A6186
:1015D80000F05CBE012B06D0364A9370364A136879
:1015E80043F00403136094F876713B4B4FF000020C
:1015F8001A70394D042F00F26A86DFE817F02900C7
:10160800680629000500050010214FF00009372061
:101618008DF8789008F01CFF0A2017F0C2F80D2109
:10162800242008F015FF0A2017F0BBF830216A20A3
:1016380008F00EFF0A2017F0B4F81EAA0121484648
:1016480017F0F4FAE8B9012F40F231862870002724
:1016580000238DF87830C4F8983101221EAB0A2196
:101668001E2006F03BFE0028CED09DF87830482B8F
:10167800CAD11A4B1A4A1A601A4A5A60022300F051
:1016880008BE9DF87830482B09D1144B164A1A60C9
:10169800164A5A6008232B70042300F0FABD484606
:1016A800D1E700BFE1A10008999B0008E45200209F
:1016B8004C0C00203D010020340C0020280600209E
:1016C800F0340020519B000855A70008BD9E000873
:1016D800659E00089B990008643600205C3600204F
:1016E800D19E0008CD9D0008F1A1000849A300087B
:1016F800012017F060F8029B029A1B7843F002035E
:101708001370B54A1368918899610A2514462168AF
:10171800A3888A8AB04F5A4092B28A82192017F059
:1017280040F801200CF0F0FD192017F03AF80020DD
:101738000CF0EAFD6B1E13F0FF05E8D13B68A74DDE
:10174800BA889A612A6812F0020F14BF072301238E
:10175800510748BF43F00803D8F8001012F00A0FE9
:1017680043F0006318BF43F070038A069C4A029254
:10177800107848BF43F0800300F0EF040F0648BF1D
:1017880043F4C063082C01D00E2801D143F4006350
:10179800CC034CBF43F4A04343F480534A0748BFEB
:1017A80043F480334F0543F4802204D58D4C2478CC
:1017B8000CB143F440228C0548BF42F400121828AB
:1017C80008BF42F0E072080348BF42F00072C90542
:1017D80048BF42F0806242F4801400274FF00109AC
:1017E80009FA07F818EA040FF8B204D014F0FEFB5F
:1017F80008B924EA080401371D2FF1D17A4B7B4838
:101808001C60502200217A4CDFF84CB2794F1BF053
:101818002BFB5022002178481BF026FB17F078F9A3
:10182800228A764B93FBF2F3754ADBF80000D27AF2
:101838009BB253433B6014F09DFB029B93F90C3021
:10184800002B3FD16F4B9FED708A1B686F4F1B7B3E
:10185800DFF808A2DFF8088200EE103AB8EEC00AF6
:1018680020EE080A0EF05CFED4ED037A684B9FED7B
:10187800697A83ED000A67EE887A674B674CC3ED97
:10188800007A3389664E07EE903AF8EEE77A654BB0
:10189800C7EE276A9FED647AC6EE877AC3ED007AB1
:1018A80014F0F8FA6149624AA1606249666000234F
:1018B800138093700B70604A398A12685F480FFA78
:1018C80081FC10E0DFF89C81D7F800900027029B8C
:1018D80008EB0700494693ED020A1C370EF0A4FEF8
:1018E800E02FF4D1AEE7D8F800E02AF813C00EF5DF
:1018F800967E40F823E00133122BDFF860E1DFF831
:101908006091F0D14E4B0493186810F4805F08BFC3
:10191800B7F916C0AEF806C002F1500C1378E3B957
:10192800937892F80380434517D23BB1013B03EB10
:10193800830303EB830303F5617307E008F10108F0
:1019480008EB880808EB880808F5617392F80180AD
:1019580008F104089BB22EF8183004326245DDD134
:10196800030740F11C813B7A072B00F21481DFE862
:1019780013F0080008000B007B009500AE00D100B2
:10198800F50017F0EDFE05E12E4A0A23090191FB47
:10199800F3F10023A1F5B06142F823100133122BB3
:1019A800FAD1237042F6F8236380274B6360402006
:1019B800264BA36016F014FE002800F0EC807B7A1A
:1019C80090F90000224A002B0CBF0623072301933D
:1019D800012300931F4BD7E04C4E0020340C00200D
:1019E800180C002040170020400C0020480B002055
:1019F800FC33002010330020980B002040420F00D9
:101A080028370020F037002035FA8E3CB8500020E7
:101A1800342800200AE81C412428002074510020A2
:101A2800113D01083036002000401C460D3D0108DC
:101A3800983200208B1F0020580D0020D41F002052
:101A4800B4500020D4310020193B01084D3B010857
:101A58004D400108A0860100540D0020284E0020AA
:101A6800644E0020AC1500201023237042F6F823A2
:101A78006380734B63604020724BA36016F0B0FD27
:101A8800002800F0888001234FF0000C90F9000036
:101A98006D4A8DE808104FF4E13375E00823237090
:101AA80042F6F8236380694B63604020684BA3606B
:101AB80016F096FD00286ED001234FF0000E90F925
:101AC8000000644A8DE808404FF4E1335CE0624A64
:101AD80000271770614A1770614A1770614A2321FD
:101AE8001170614A10232370137042F6F823638043
:101AF8005E4B636040205E4BA36016F071FD0028CA
:101B080049D0012390F900005A4A009301974FF4F5
:101B1800E1331CE042F6F8226280574A6260574A75
:101B2800A260574A00271770564A1770564A17700E
:101B3800564A0C2340202370137016F051FD50B301
:101B4800012390F90000524A0093524B019740211B
:101B580016F0D3FEC01B18BF01201BE00A23237018
:101B680042F6F82363804C4B636040204B4BA360E4
:101B780016F036FD78B101230027494A90F9000094
:101B88008DE888004FF4E133402116F0B6FE0030AE
:101B980018BF012018B9082018F004FC6660414EEF
:101BA8003268500408D51223237044F620636380FA
:101BB8003D4B63603D4BA36042F20103134002F4C6
:101BC800005173B144F62060394B608019B1082187
:101BD8001970384904E0D10703D50C21197036492A
:101BE8005960120640F192800027344C34486770DF
:101BF800152239466760A7601BF036F938460AF0A7
:101C0800B7F8D9F80030E360022016F0E9FC18B9FB
:101C1800802018F0C7FB75E042796378DFF8A4E00C
:101C28004FF00C0C0CFB03E1497891424CD0013386
:101C3800DBB2042B4FF00107F4D9002345E000BFC5
:101C4800813A0108953A0108A13F0108F5390108D0
:101C58000D3A0108593F0108603000205532002034
:101C680054320020613000208530002045370108BB
:101C7800513701089B3D01085D3801087538010896
:101C8800EA3000200D3100200E3100200F310020F5
:101C9800793E010890D00300E5370108F5370108BF
:101CA8002D3E0108B4500020E13C0108CD3C01085C
:101CB80074510020FD3C0108ED3C010880360020ED
:101CC800C4070020F4EF010807B16370C64B6278BF
:101CD8001B7890F90000002BC44B4FF00C0404FB58
:101CE80002330CBF0121032100225B788DE8060036
:101CF800022116F002FEBE4B1860002888D0012091
:101D08000AF036F8DBF800000AF0E0F833689B05C3
:101D18004CD5B84CB84A039B2360536943F48023DD
:101D28005361039B1B88ADF8783001238DF87A3016
:101D380002238DF87B30039B1EA9586806F0CEF964
:101D480023681A89D868ADF878201EA900228DF872
:101D58007A2006F0C3F92368587C0CF043FEA749A3
:101D6800A74BC1F8B401C1F8B8318022102304464A
:101D780001F5DC710CF067FE204616F0A7FFD9F8D4
:101D88000030A04A3C3B13602B6843F010032B60E3
:101D98009D4BC8221A809D4B9D4A1A609D4B40F26C
:101DA80071121A809C4B4FF0FF321A6033689B4DBA
:101DB8000024DF032C7040F19B8001270FF00CFFFB
:101DC8002F708E4D40F22A3A05F5DE7B52462146A9
:101DD80058461BF049F8924BC5F8E83405F59D6163
:101DE800C5F8EC44844D8F4860220DF0B9FF6B694B
:101DF8004FF0904043F400336B61436A23F00F03C4
:101E08004362436A43F006034362032202234FF40A
:101E180080780CA98DF8343003938DF837708DF8DD
:101E280035208DF83640CDF8308014F005FEAA69CB
:101E3800039B42F40062AA61A5F5644512A92A88A9
:101E480022F45C721204120C2A801D22EA622846CF
:101E58002B852C8660236F611293ADF84C70ADF81A
:101E68004E401494ADF85440ADF85640ADF8584083
:101E7800ADF85A4014F0D4FAAB696B4F43F008033D
:101E8800AB616B6C43F400436B64384614F0EBFBB6
:101E98001EA814F0BDFB654B1E93102320938023CE
:101EA80023931EA94FF4005338462793CDF87CB0EE
:101EB800ADF884A02294CDF8908025942694289497
:101EC80014F0B3FBEB685A4943F40073EB603B68CA
:101ED80043F002033B602046FF226318605204343B
:101EE800802C9A70DA70F8D108F0AEFB08F0ACFBE1
:101EF8003368580564D5042016F072FB3F4C4D4DED
:101F0800C4F8F004042116F061FB84F8F4040820F6
:101F180016F066FB484B0821186016F057FB2C2278
:101F280084F8F504002128461AF09EFF8E236B7072
:101F38004FF07C08E0237D27EB7085F8008085F85A
:101F48002B703E4D2C22002128461AF08DFF8A2343
:101F58006B702020A023EB7085F8008085F82B702B
:101F680016F03EFB2021C4F8F80416F02FFB84F885
:101F7800FC04102016F034FB1021C4F8000516F0FC
:101F880025FB84F804054FF4807016F029FB4FF404
:101F98008071C4F8080516F019FB84F80C054FF495
:101FA800806016F01DFB4FF48061C4F8100516F030
:101FB8000DFB234B84F8140500221A7012F0FEFB67
:101FC8003368990240F1D1801E4BDFF87CA005935D
:101FD80000244FF4347B18465A4621468AF80040BC
:101FE8001AF042FF32E000BF740D0020F4EF010840
:101FF800B85100205036002000100240280600206A
:102008004DAB00084C360020103600200C3600205E
:102018005E836C3F18360020280D002038520020BF
:1020280065990008540000201C000240342C01402F
:102038003A5200205C170020D01700208D1700208E
:1020480005180020243900202C520020A549A64D4F
:10205800A64AC1F81825C1F81C45C02201F5A3619C
:10206800A348DFF808830DF07BFE6A694FF09040C3
:1020780042F400326A61426A22F00F024262426A06
:10208800022142F0060242628DF834108DF83710B2
:1020980003214FF480728DF835100CA90C9203922D
:1020A8008DF8364014F0C8FCA96941F40061A961B3
:1020B800A5F564450127298821F45C710904090CF8
:1020C80029809C21E96260212C8528462C866F6135
:1020D800129112A9ADF84E401494ADF85440ADF8E1
:1020E8005640ADF85840ADF85A40ADF84C7014F071
:1020F80097F9A96941F00801A961696C41F40041A7
:102108006964404614F0AFFA1EA814F081FA059BE2
:102118001F931023774920938023039A1E914046EA
:102128001EA923934FF4005324922793ADF884B04B
:10213800229425942694289414F077FAEB6843F4B3
:102148000073EB60D8F8003043F00203C8F80030A1
:1021580008F084FF16F068FE674B684A1F70137812
:102168008AF8007043F0080313704FF48043002589
:1021780001241EA962481E938DF87F408DF87C507B
:1021880014F05AFC5F4B1C705F4C238823F040030B
:102198001B041B0C2380238823F038031B041B0C0F
:1021A80043F03003238023889BB243F0400323800D
:1021B8004FF47A7016F0F5FA544B4FF480529A6146
:1021C80029460A232A46204605F0B2FF16F020FDCC
:1021D8000028FBD14E4BD9F800205A61012283F820
:1021E800242041F2142118764A4B02225A503168B1
:1021F8005A709870484BC1F3C0421A70029B1B7802
:10220800052B02BF454B4FF4C8721A80444B4FF45C
:102218007A721A80434BC8221A80434A137843F0D3
:1022280008031370414A137823F0020313708A07D6
:1022380011D54CF25031B7EE000A3D480EF0F4F9D2
:102248003C4B03221A703C4B01221A703B4A002374
:1022580013803B4A138033689B0306D5394B05220C
:102268001A71DA7842F00102DA70374B049A1B6867
:102278001360364B01221A70204A137863F07F03EB
:10228800137033B0BDEC068BBDE8F08F0423FFF765
:10229800A3B92F4C2F4AD370236843F00803236057
:1022A8002D4B1B689847B8B12C4B01221A702C4B48
:1022B8001A780AB12B490A705A780AB12A490A7061
:1022C8009B78002B3FF417AA2B70FFF714BA012F45
:1022D800EDD90027FFF78CB9236823F008032360A2
:1022E800E5E700BF28060020001002403DAA0008CC
:1022F80054000020342C01402D520020383000209A
:1023080000080048C01600200038004000040048BB
:10231800CC380020F43B0020EE100020EC10002008
:1023280040200020F83500207C0D0020140C0020EF
:10233800DC5000206A0F00203C010020FC27002010
:10234800FE270020BC510020F80D00208C1600202C
:10235800340C00203D0100205C3600207836002037
:10236800780F00206E2D0020E45200201C0002404F
:1023780037490020087007EE903AB2F9023009EEAA
:10238800103AB2F90430B8EEE78ADFED327A08EE97
:10239800903A28EE278AB8EEC99AF8EEE88AB0EEA5
:1023A800480A29EE279A68EEA78A0EF0B9F8F0EEE7
:1023B800409AB0EE480A0EF051F8B0EE408AB0EEFE
:1023C800490A0EF0ADF8B0EE40AAB0EE490A0EF098
:1023D80045F8F0EE40AAB0EE680A0EF0A1F8B0EEAB
:1023E800409AB0EE680A0EF039F869EE806A68EE35
:1023F800097AF0EE665AEAEEA75A174B29EE896A6F
:1024080028EE007AC3ED035AB0EE465AF1EE6A5A46
:10241800A5EE875AEAEEA67AA5EE867A2AEE099AFA
:102428002AEE400A28EE4A8A69EE8A9A83ED009AD3
:1024380083ED010AC3ED02AA83ED045A83ED058AF0
:1024480083ED067AC3ED077AC3ED089AFEF7ABBEB3
:102458003001002035FA8E3C602C00202DE9F04F29
:102468003C4DD7B000236C1E6E1C0293A4F11103DF
:10247800049354F8113C002B01F01F85364FDFF808
:10248800E080DFF8E09054F8110C16F0BEFB0390E2
:10249800002801F0E88454F8110C16F0B0FB14F889
:1024A800053C013B8246042B04D8DFE803F0070C07
:1024B800202A2E00242857D1012347E04D280CBF9D
:1024C8000223002342E000233C2804F8053C02D004
:1024D8003E2806D088E014F80D3C002B40F084809C
:1024E80003E014F80D3C012B7ED103232EE0402895
:1024F8004FF000039EBF04F8043C04F8030C0423C7
:1025080024E004F8020C052320E014F8042C14F845
:10251800033C9A420BD2531C1049029804F8043C1D
:10252800502303FB00131A4482F810A05CE014F84F
:10253800022C611E5A4013F1FF3303D311F8010B2B
:102548004240F8E792450CBF0623002304F8053CF7
:102558004AE000BF5A0B0020FC9F0020480B0020D7
:10256800EFBEADDE0400FA05DFF878B09BF8CC309A
:1025780013F0040338D1BAF1230F21D1012154F803
:10258800112C8BF8A0108BF8B5301249CBF8AC1091
:102598001023CBF8B0208BF8B4300F48CBF8A42028
:1025A8000BF1AC03CBF8C830CBF8A82017F058FBD8
:1025B8000EF076FD9BF8CC3043F002038BF8CC305C
:1025C800064B1B78534502BF054BC7F80080C3F87C
:1025D8000C9009E06D850108E0F5010884510020A0
:1025E80000ED00E0480B002014F8053C062B7FF4B2
:1025F8004AAF14F80DECBEF1000F41F0348456AA2E
:10260800089214F8037C14F8022CADF826E0611E39
:102618000FFA82FC16ABC819013A07930A910B907E
:10262800ADF830C0ADF832E0ADF824C0FD2A01F2B3
:102638000B84DFE812F01A0123012B0136013C015B
:10264800090C090C090C090C090C090C090C090CDA
:10265800090C090C090C090C090C090C090C090CCA
:10266800090C090C090C090C090C090C090C090CBA
:10267800090C090C2A059A0A7003F4070505530A80
:102688000905610A1705850A3F05B40A4305C70A03
:10269800D0058F0BE905BA0BA705370B96030F0872
:1026A800BB056F0B1201730AD0026B03D007050339
:1026B800C407090CAF053E0B090C090CF60BBB0649
:1026C8002E06090C090C090C090C6005EC0A04011A
:1026D8000E0B4D063D06BA09AF06CE09090C090CCA
:1026E800090C090C7F09090C090C090C090C090CC7
:1026F800090C090C090C090C090C090C49015701B2
:10270800E0010F027602FE0045046804B502C60225
:10271800D40210034A03090C0504090CC603680314
:102728007C04E9031202090C090C090CCA06D80634
:10273800F006F6050B0190067706090C090C090C42
:10274800090C090C090C090C090C090C090C090CD9
:10275800090C090C090C090C090C090C090C090CC9
:10276800090C090C090C090C090C090C090C090CB9
:10277800090C090CF804090C090C090CAC04090C27
:10278800090C090C090C090C090C090C090C090C99
:10279800090C090C090C090C090C090C090C090C89
:1027A800090C090C090C090C090C090C090C090C79
:1027B800090C090C090C090C090C090C090C090C69
:1027C800090C090C8D07DC09DB07090C3D08940985
:1027D800A00986088B090C0A76078507DF08090C0B
:1027E800C608090C090C420954096B097009CE0B7B
:1027F800090C090C090C090C090C090C090C090C29
:10280800090C090C090C090C090C090C090C090C18
:10281800090CB907ED044B021C09090C4A0BFD060B
:10282800090C090C090C090CAE09090C090C090C56
:10283800E1040027DFF84C83DFF84C937DE10027A3
:10284800DFF84093DFF8448300F082BCC14A128865
:10285800FF2AA8BFFF2200F097BCBF4A1178197061
:1028680051785970927800F0DFBD00221A70012764
:102878000DF15B0207925F7019220FE0B74904223D
:1028880007A80DF0F4FB012701F0E0BA0E2201279A
:102898005A700DF15B0207921F7002229A7001F0C4
:1028A800D5BA0422AE4907A80DF0E1FB66E30B2276
:1028B800AC4907A80DF0DBFB0822AB4907A80DF0CF
:1028C800D6FB0722A949DBE7E7221A70A84A92F843
:1028D800D0205A700DF15B02079200229A700421F1
:1028E80000F06EBDA24F07A8B7F8E0100DF0DDFBB1
:1028F800D7F8E4209F4B9A420CBFB7F8E810B7F816
:10290800EA1007A889B20DF0D0FBD7F8EC30C3F372
:10291800C001C3F38002890041EA4201C3F34002C7
:102928001143C3F3401241EAC20103F010031943F3
:1029380007A80DF0BAFB0023B7F8F000DFF850E263
:102948001A464FF2FF7C4FF0010812F90E10B1F150
:10295800FF3F0CD04CFA02F919F0010F07D040FAEA
:1029680002F919F0010F1CBF08FA01F10B430132FB
:102978000C2AEAD1D7F8F4E000224FF0010C7E4887
:102988000CFA02F1084018B111EA0E0F18BF0B43F8
:102998000132202AF3D197F8CC20D7F8F8805207D3
:1029A8004FF0000248BF43F00103114610464FF0B4
:1029B800010E0EFA02FC1CEA080F07D01CEA030FEE
:1029C8001CBF0EFA00FC41EA0C01013001321D2A3D
:1029D800EFD107A80DF055FB079B97F8FC20591C71
:1029E80007911A70B7F8FE1007A80DF05EFBB7F84C
:1029F800001100F00BBD5E4BB3F80C21B2F5806FEF
:102A080094BF4FF000094FF00309002703F58878B9
:102A180058F8271041FA09F189B207A801370DF0D3
:102A280044FB032FF4D1DFF86C81002738F8271016
:102A380007A801370DF039FB032FF7D1DFF85881CC
:102A4800002738F8271007A801370DF02EFB032FB1
:102A5800F7D118E71022494912E7DFF814814FF03F
:102A680000094FF00C0A0AFB09F7D8F8443107A807
:102A7800D95B0DF01AFBD8F844313B4407A85988B4
:102A88000DF013FBD8F844313B4407A899880DF0A2
:102A98000CFBD8F844313B4407A89A79079B591C8A
:102AA80007911A70D8F844313B4409F10109DA79E1
:102AB800079B591C07911A70D8F844311F44B9680C
:102AC8000DF0DFFAB9F1080FCDD1DCE62C4B03F19C
:102AD8007001079A13F8010C571C07971070079A92
:102AE8001878571C07971070079A5878571C07973B
:102AF8001070079A9878571C07971070079AD8781B
:102B0800571C07971070079A1879571C0797107069
:102B1800079A58790733571C8B4207971070D8D1FA
:102B2800B1E6DFF87880002738F8171007A80137D2
:102B38000DF0BBFA082FF7D1A5E698F800309F42B0
:102B4800BFF6A1AE39F8171007A80DF0AEFA013795
:102B5800F3E700BFD4500020F850002018F6010811
:102B68001DF6010822F601082EF6010837F60108BD
:102B7800480B002000540040C0F11F1A7C0C0020B4
:102B8800910C002074510020284E00200A0E0020CD
:102B980018D10108640C0020700C0020000D0020E2
:102BA800A54F07A8B7F8D0110DF07FFAB7F8D211E2
:102BB80007A80DF07AFAB7F9D4310A2193FBF1F19D
:102BC80039E09D4F07A8D7F8D8110DF05AFAB7F891
:102BD800DC1100F01BBC984BD3F8E011F0E3964FE2
:102BE80097F8EA81B7F8EC2107EBC8080DF159010D
:102BF8000791D8F8F411FF2A4FF6FF79A8BFFF22F2
:102C08004945A8BF494621EAE1711A7089B207A867
:102C18000DF04BFAB7F8001207A80DF046FA97F82E
:102C28000232D8F8F01143B10A2359434945A8BFE5
:102C3800494621EAE17189B2E8E301F30F01FAE7B5
:102C48007D4A92F80512197092F804225A700DF113
:102C58005A01079117E6784AD2F808120DF1590778
:102C6800087818700797497859700DF15A0007903D
:102C780000211046D0F808326F4A0B4401311F7901
:102C8800079B032903F1010ECDF81CE01F70F1D159
:102C9800D2F80832D979079B581C07901970D2F8D6
:102CA80008329978079B581C07901970D2F8083297
:102CB800D978079B581C07901970D2F8087207A892
:102CC80079890DF0F2F93A7A31E25B490023D1F8BB
:102CD8000C22D05C079A571C07971070D1F80C2269
:102CE8001A44907A079A571C07971070D1F80C224B
:102CF8001A440133107D079A0A2B02F1010707973E
:102D08001070E4D1BFE52F224C49B9E54A4AD2F800
:102D18000C22927F38E2DFF820910027D9F8103290
:102D280013F8270003EB870813F060F9079B427933
:102D3800591C07911A70079B98F80120591C079194
:102D48001A70079B98F80220591C07911A70079B64
:102D580098F803200137591C142F07911A70DDD1F8
:102D680091E5DFF8D48000224FF00609D8F8140264
:102D7800079F09FB02F1431807F1010C93F805E0DE
:102D8800CDF81CC087F800E0405C07994F1C0797F6
:102D98000870079958784F1C079708700799987812
:102DA8004F1C079708700799D8784F1C0797087029
:102DB8001979079B0132581C0C2A07901970D5D134
:102DC80061E5DFF8749000274FF001084FF03B0AE7
:102DD800D9F8F82008FA07F3134211D0F8B213F023
:102DE80005F9D0F800B0584617F07EFD594602465E
:102DF80007A80DF03CF9079B5A1C079283F800A01E
:102E080001371D2FE4D13EE5DFF82C9000274FF065
:102E18000108D9F8F83008FA07F21A4207D0F8B2D0
:102E280013F0E4F8079B4279591C07911A7001378F
:102E38001D2FEED127E500BF480B002024D1010843
:102E4800DFF80483BB4FB8F8101007A80DF02DF970
:102E5800B7F8181207A80DF028F9B7F81A1207A83A
:102E68000DF023F9B7F81C1207A80DF01EF9B7F8F2
:102E7800261207A80DF019F9079B97F82C22591C60
:102E880007911A70079B5A1C079200221A70079B19
:102E980097F82D12581C07901970079B97F8021283
:102EA800581C07901970079B98F80B10581C07902E
:102EB8001970079B591C07911A70D7F83032B0E087
:102EC8009C4F97F8342202F002021A700DF15A0151
:102ED80097F835225A70079107A8D7F838120DF0DD
:102EE800D0F8D7F83C1207A80DF0CBF8B7F8401285
:102EF80007A80DF0DAF8B7F8421207A80DF0D5F8D0
:102F0800B7F8441282E28B4F07A8B7F846120DF0C3
:102F1800CCF8B7F8481207A80DF0C7F8079A97F841
:102F28004A32511C03F0010307911370ABE414F803
:102F3800010C0A947F4A20B9D2F84C12D2F8507288
:102F480007E0102813BF0027D2F85412D2F858729D
:102F580039460DF15902187007A807920DF091F83B
:102F6800394607A80DF08DF8724B07A8D3F85C1204
:102F78000DF087F8002107A80DF097F8002107A8A1
:102F88000DF093F8079B5A1C07920022FFE0694A4C
:102F98000DF1590092F8601219700790002302F29F
:102FA800612792F860128B42BFF66DAC0799D85D25
:102FB80001F1010ECDF81CE0087007985E4900F198
:102FC800010C13F801E0CDF81CC080F800E001F115
:102FD8001000203113F800E0079800F1010CCDF83B
:102FE8001CC080F800E0585C079901F1010ECDF88B
:102FF8001CE001330870D4E7DFF85081002738F867
:10300800171007A801370DF050F8042FF7D13AE44C
:10301800484FD7F8AC3207A859880DF046F8D7F8CA
:10302800AC321988F2E1454B07A819680DF029F868
:10303800434B07A819680DF024F8424B1968BFE103
:103048003C4BD3F8B012BBE13A4F07A8B7F8B4121B
:103058000DF02BF8B7F8B61207A80DF026F8B7F858
:10306800B812D3E1334F07A8B7F8BA120DF01DF81C
:10307800B7F8BC1207A80DF018F8B7F8BE1207A8E1
:103088000DF013F8B7F8C012C0E12A4F97F8E52100
:103098001A7097F8E4215A700DF15B0197F8E62150
:1030A80007919A70B7F8E81107A80CF0FEFF97F897
:1030B800EA213CE01F4A92F8D02065E0224F0DF14A
:1030C80059013A7A1A70079107A8B98A0CF0EDFFEE
:1030D800398A07A80CF0E9FF798A07A80CF0E5FF00
:1030E800079BBA7A591C07911A70F98A07A80CF03D
:1030F800DCFF398B8AE10F4F97F824221A700DF103
:103108005A0197F825225A700791B7F8261207A88E
:103118000CF0CBFF079B97F82822591C07911A70CF
:10312800B7F8291207A80CF0C0FF97F82B22079BC5
:10313800591C2BE0480B0020B90D0020ACF7FF1FED
:10314800B0F7FF1FB4F7FF1FB8500020EA0D0020AA
:1031580099F800309F42BFF696AB079B18F81720E6
:10316800591C07911A7008EB470307A8597801EB17
:10317800810101EB810101F2EE2189B20CF095FF8A
:103188000137E5E7C44AD27A0DF1590107911A705F
:10319800FFF779BBC04F0023079AD95D0133501C54
:1031A800082B07901170F7D1FFF76DBBBB4FDFF805
:1031B8001C9307F1300817F9032C002313F90910A1
:1031C800914200F089860C33482BF7D108374745E0
:1031D800F1D1FFF758BBDFF8F882002738F807105D
:1031E80007A80CF062FF079A08EB0703501C9978B0
:1031F80007901170DA78079B0437591C402F079104
:103208001A70EBD1FFF73FBBDFF8C882002758F8E8
:10321800271007A801370CF034FF202FF7D1FFF74C
:1032280032BB9F4F00234FF0060E0EFB03700022A7
:10323800079901F1010CCDF81CC00B70079901F139
:10324800010CCDF81CC00A70079910F802C00132B1
:1032580001F10108062ACDF81C8081F800C0E7D1E9
:103268000133062BE1D18F48002207994F1C07979D
:103278000B7007994F1C07970A700799175C013262
:1032880001F1010E0B2ACDF81CE00F70EDD1FFF70C
:10329800FABA00270DF159021F70394607A807929C
:1032A8000CF0EFFE394607A80CF0EBFE394687E034
:1032B8007D4A92F82114597092F81F1499700127C9
:1032C80092F820241F7017A90791DA7000F0BEBD8C
:1032D800012276491A70098A754F11F4804F10D16E
:1032E80097F8241071B1734A5278022A04D0032A3D
:1032F8000CBF0422012205E0042934BF0222032264
:1033080000E000225A706C4A1178997052F83C1CFF
:103318000DF15B000790890A07A80CF0B2FEF96B63
:1033280049084DE0604A92F82214033918BF012178
:103338001970B2F8EC11FF29A8BFFF21597092F853
:10334800EA3102EBC3020DF15A00D2F8F4110790EA
:1033580081F310016FE4DFF8808100274FF00A0A3B
:103368004FF6FF7957F808100AFB01F14945A8BF45
:10337800494621EAE17189B207A80CF096FE08EBEC
:10338800070307A8596808370CF07BFE102FE9D10E
:10339800FFF779BA0DF15902012707921F7006222B
:1033A800464907A80CF063FE00F050BD0B224449C3
:1033B80007A80CF05CFE002107A80CF062FE0021B3
:1033C80007A80CF05EFEFFF75EBA374F07A8B7F8FC
:1033D80024140CF06AFEB7F8261407A80CF065FE52
:1033E800B7F8281412E0304AD2F82C240DF159000D
:1033F800117819700790517859700DF15A0007909B
:10340800917899700DF15B00D188079007A80CF0AE
:103418004CFEFFF738BA244A92F83014197092F823
:10342800311492F8322459700DF15B01079184E34D
:10343800C0220021234819F017FD23494FF0000E40
:103448007246A1F2F44C4FF001094FF0020A4FF016
:10345800040B9CF8F604144B864557DA4B7AD807C8
:1034680050D50B7A0CEB4303B3F9B831002B49DD87
:10347800CF6813010CEB0300B7F8088005937B684D
:10348800C0F83434A0F83A84002709FA07F010EAA3
:10349800080023D0384624E0B85000208951002085
:1034A800380F00205C0F0020480B0020000800485F
:1034B800CC380020F43B0020A84D00201E39002005
:1034C80022F601087C0F00203C100020300E00205E
:1034D800780E0020B80E0020380D00200137102F7C
:1034E800D3D1059B63440132A3F83C8483F83FA4FD
:1034F80083F83EB4A3F83804D3F83C04C3F8400476
:1035080083F842940EF1010E0831A2E7D2B20DF110
:10351800590183F85C258DF858200791AF4A00F0CF
:1035280082BCAF4A92F8CC305B073FF5ACA914F8DF
:10353800013C0A94032B28BF002382F8FC302EE2BA
:103548000AA80CF089FDA64BA3F86405FFF79BB900
:103558007F08122F00F278844FF000080DF134092B
:10356800474507D90AA80CF077FD29F8180008F193
:103578000108F5E79B493A4600230DA89F4205DD5F
:1035880030F813E021F813E00133F7E7954B0021F9
:10359800122A03D023F812100132F9E7904B0127C1
:1035A80083F88A7500F052BC8D4F0AA8D7F8AC8210
:1035B8000CF052FDA8F80200D7F8AC72FBE0884B7B
:1035C80014F8012C83F8052215F8012C0A9583F8C4
:1035D8000422FFF758B9824B14F8010CD3F80C32C7
:1035E8000A94987712F0B4FCFFF74DB97C4BD3F8E6
:1035F8000C22531E02F109000A9A511C0A91114625
:1036080011F8027B03F8017F0A9151789972D11C55
:103618000A9192781A759842EED1FFF734B914F8E6
:10362800013C0A94132B00F30F846D4815F801EC44
:10363800D0F81072DFF8B0C10A950021CA000CEB6F
:10364800020898F80580F04500F05E8401311D29D4
:10365800F4D1F9E314F8013C0A940B2B00F3F4833A
:1036680015F8010C5E4A0A950428D2F8141200F3E2
:10367800EB8303EB430301EB43020A965071607836
:1036880001F813000A9B591C0A911B7853700A9B76
:10369800591C0A911B7893700A9B591C0A911B7834
:1036A800D3700A9B591C0A911B781371FFF7EBB86A
:1036B800092F40F3C9834A4B0A94D3F8088214F8B7
:1036C800013C88F800300A9B5A1C0A921B7888F83B
:1036D800013008F1030000220A9B591C0A91022AB2
:1036E80093F800E014BF6421FF21714502F1010243
:1036F80028BF7146032A00F8011FEDD19A1C0A92CF
:103708005A78642A28BF642288F80720DA1C0A92AB
:103718009B7888F802300A9B5A1C0A921B7888F812
:1037280003300AA80CF098FC0A2FA8F80A003FF406
:10373800AAA80A9B5A1C0A921B7888F80830FFF737
:10374800A2B80AA80CF088FC6FF4AF6E00EB0E0369
:10375800DFF89880224FC62B98BFA8F810000AA857
:103768000CF07AFCA7F818020AA80CF075FCA7F868
:103778001A020AA80CF070FCA7F81C020AA80CF0A0
:103788006BFC0A9BA7F826025A1C0A921A4612F8E2
:10379800031B0A929A7887F82D221A1D0A92DA7862
:1037A80087F8022287F82C121A79D7F8307288F82D
:1037B8000B2006330A930AA80CF04EFC3880FFF75A
:1037C80062B8DFF82C8000270AA80CF045FC28F81E
:1037D80017000137082FF7D1FFF755B8655E0108C4
:1037E800480B0020AE10002054D10108B85000202A
:1037F800D41000200D2F40F0278314F8019C0A9460
:10380800B9F1070F00F22083DFF8A4830AA8D8F8DB
:1038180044A10C270CF020FC07FB09F72AF8070045
:10382800D8F844A10AA80CF017FCBA44AAF8020078
:103838000AA8D8F844A10CF00FFC0A99D8F84481DA
:103848004B1CBA440A930A4609EB4903AAF8040038
:1038580008EB830312F8020B98710A924A78DA711E
:103868000AA80CF0E3FB4744B860FFF70CB814F85B
:10387800013C0A940F2B00F3E782CD4AC3EBC30344
:10388800134415F8012C83F84821627883F84921FC
:10389800A27883F84A21E27883F84B21227983F8C9
:1038A8004C21627983F84D21E21D0A92A27983F8AE
:1038B8004E210BF02DF9FEF7E6BF0AA80CF0CCFB61
:1038C800BB4FA7F824040AA80CF0C6FBA7F82604E7
:1038D8000AA80CF0C1FBA7F82804FEF7D4BFB44B24
:1038E8000A94D3F82C7414F8013C3B700A9B5A1CB8
:1038F8000A921B787B700A9B5A1C0A921B78BB7031
:103908000AA80CF0A9FBF880FEF7BDBFA9480CF087
:103918001DFFFEF7B8BFA64B14F8012C83F830241E
:1039280015F8012C83F8312462780A9683F832243A
:10393800FEF7A9BF08230021079A013B501C13F08A
:10394800FF0307901170F7D1FEF79DBF984B93F8CE
:10395800CC305F073EF597AF14F0EEFA1FE0944BBA
:1039680093F8CC2050073EF58EAF4FF4C872A3F8F9
:10397800A425FEF788BF8E4B93F8CC2051073EF55F
:1039880082AF93F8342242F0040283F83422FEF71F
:103998007ABF874B93F8CC305A0700F1558214F060
:1039A800D3F914F0A7FBFEF76EBF814B93F8A62559
:1039B800012A00F2498214F8012C83F8212415F811
:1039C800012C83F81F2462780A9683F82024FEF7D6
:1039D8005ABF062F40F03882774B0A681A608A88E7
:1039E8009A8007F03BFB15F01FFAFEF74CBF14F85E
:1039F800013C6F4F23B197F8343243F0020303E0E0
:103A080097F8343223F0020387F834320AA815F8FD
:103A1800013C87F835320A950CF008FBC7F83802E4
:103A28000AA80CF003FBC7F83C020AA80CF014FB28
:103A3800A7F840020AA80CF00FFB97F84A32A7F83B
:103A4800420243F0020387F84A32FEF71CBF0AA875
:103A58000A9414F801BC564F0CF0E8FA82460AA8FA
:103A68000CF0E4FA81460AA80CF0E0FA80460AA8AD
:103A78000CF0F2FA0AA80CF0EFFA0A9B01330A9349
:103A8800BBF1000F14D11020C7F84CA2C7F8509210
:103A980012F0BEFA97F8343243F0010387F8343253
:103AA800B8F1000F3EF4EFAEC7F85C82FEF7EBBE4C
:103AB800BBF1100F7EF4E7AEC7F854A2C7F85892CE
:103AC800B8F1000F01D0C7F85C823C490223081FF7
:103AD80087F8A73508F0B0F9FEF7D5BE344F0023B4
:103AE8000AA8C7F8B0320CF0A1FAD7F8B0321843D8
:103AF800C7F8B002FEF7C7BE0AA80CF0ADFA2C4F03
:103B0800A7F8B4020AA80CF0A7FAA7F8B6020AA800
:103B18000CF0A2FAA7F8B802FEF7B5BE14F8013CFB
:103B28000A94002B40F09081254B15F8012C1A704F
:103B380062785A70E21C0A92A2789A70FEF7A3BEC5
:103B480014F8017C0A94012F00F37E810AA80CF076
:103B580083FA174B03EB8707A7F8BA020AA80CF0F9
:103B68007BFAA7F8BC02FEF78EBE114F14F8013C91
:103B780087F8E53115F8013C87F8E4310AA863783D
:103B880087F8E6310A960CF067FA0A9BA7F8E8016D
:103B98005A1C0A921B7887F8EA31FEF774BE044B68
:103BA80014F8012C0A9483F8D020FEF76CBE00BFED
:103BB800480B0020701702081E390020A00D0020B5
:103BC800F85000209A4F14F8013C3B720AA80A9456
:103BD8000CF042FAB8820AA80CF03EFA38820AA819
:103BE8000CF03AFA0A9B78825A1C0A921B78BB722C
:103BF8000B9B9B1A012B7EF746AE0AA80CF02CFAF9
:103C0800F8820AA80CF028FA3883FEF73CBE894FE0
:103C180014F8013C87F824320AA815F8013C87F803
:103C280025320A950CF018FA0A9BA7F826025A1CA6
:103C38000A921B7887F828320AA80CF00DFA0A9B1A
:103C4800A7F829025A1C0A921B7887F82B32FEF72C
:103C58001ABE14F8017C0A94112F00F3F580DFF8DE
:103C6800D48115F8012C0A957F0008EB07030AA8F0
:103C780083F8C2220CF0F0F940F2ED23984205DDFA
:103C880040F6CA039842A8BF184601E040F2EE2069
:103C98004744A0F2EE20192390FBF3F087F8C30203
:103CA800FEF7F1BD624B14F8012C0A94DA72FEF7A4
:103CB800EABD5F4900230A9A501C0A9012785A54A8
:103CC8000133082BF7D1FEF7DEBD5A4F97F8CC30F9
:103CD8005B073EF5D8AD14F9018C0A94404614F000
:103CE8009DFC08B1436873B9002203230093019235
:103CF8004FF4E1334FF40061404614F0FEFDC7F87D
:103D0800A80510B9A0E0C7F8A8354B4BC7F860352F
:103D1800FEF7B9BD072397FBF3F3C3EBC3039F4239
:103D280040F092800A9A0B9B9B1A062B7EF7ABAD4C
:103D3800531C0A9392F9002000234049DF0007EB47
:103D4800010898F90210914200F002810133062B14
:103D5800F3D179E0DFF8E8800027C1460B9B0A9A87
:103D68009B1A032B7EF78FAD0AA80CF075F90A9BF6
:103D78005A1C0A921A46B0F5B47F12F8021B0A922E
:103D88005B784FEA870203DB2D4B002199505BE0FB
:103D980029F827000137102F88F8021088F8033017
:103DA80008F10408DAD1FEF76EBD052F0A9414F85D
:103DB800018C49D1B8F11F0F46DC0AA80CF036F97E
:103DC8001C4B03EB8803C3F870030DF005FFFEF7E7
:103DD8005ABD184F4FF0060E0A9A831A022B7EF727
:103DE80052AD1146531C0A9311F8023B0A9102F195
:103DF800030C5178CDF828C092780F2A24D8052BC7
:103E080007D8052920D80EFB0373194481F8F0233D
:103E1800E2E7062B18D10A2916D8394481F8142468
:103E2800DAE7084A034BC3F86025FEF72CBD00BF4C
:103E3800B8500020480B0020555E0108845100202E
:103E4800780E0020E96001084FF0FF37079B0893C0
:103E580007A916AB04980793ADF8267014F006FD71
:103E6800002304F8053C454FD7F8603523B1049882
:103E780098470023C7F8603514F8053CEBB954F8A7
:103E8800093CD3B1039AC2B956AA0E924FF6FF72F3
:103E980016AFADF83C20BDF80C200D97ADF83E20CC
:103EA8000DA8984730B10D9B04980E930DA90D9756
:103EB80014F0DCFC002344F8093C029B0133022B7C
:103EC800029305F1500504F1500406F150067EF402
:103ED800CDAA57B0BDE8F08F079B591C07911A70FF
:103EE80037F8011C07A80CF0E0F83A4600230799B8
:103EF80012F8010F013301F1010E042BCDF81CE07B
:103F08000870F4D1FFF762B9DFF87CE072441BB2A5
:103F180092F8402007F8232007EB83010A9B5A1CDC
:103F28000A921B784B700A9B5A1C0A921B788B705A
:103F38000A9B5A1C0A921B78CB70D0F810020021F9
:103F480016F000FA0E4B80F001001870FEF79BBCCB
:103F580088F802200AA80CF07FF80A4AA8F804009A
:103F68007B1D134400220A99481C0A9001320978E3
:103F780003F8011F042AF6D1D4E600BF480B00203D
:103F8800000000208451002018D101082DE9F04FCD
:103F9800BD4ABE48BE4C00232DED048B1370BD4BAB
:103FA800196853685160CB1A117A0429904608BFE2
:103FB800B94A99B09BB208BF1380038014F0CAFBBA
:103FC800B64BB7491A88B74B00941E68B64B0968B8
:103FD8001B680546B5480068B04798F8086004941F
:103FE800042E04D114F0B6FBAB4B401B988014F0A0
:103FF800B1FB012E05900AD1AD49D8F80C30A64A7C
:104008000968C8F80C00C31A93805B1AD380A94BBF
:10401800A94DDB780693A94BA9481B78032B15D922
:10402800AF88B7F5FA7F11D2A64AB0F904E0B2F921
:10403800046086EAE674A4EBE67479420A1B9645A6
:1040480003DB3A197245A8BF724682809E4A1168FE
:1040580011F0006110D19B4AB0F90460B2F906E092
:1040680095F90220B0F902C0B0F90080DFF8849217
:104078009648524256435EE195F90220B0F9045041
:10408800B0F902E0B0F900C0914E00205242554309
:10409800014607469F422CD207EE905AB8EEE77ABF
:1040A80007EE90EAF8EEE76A07EE90CA96ED016A25
:1040B800F8EEE77A0DF1440967EE867A96ED026A22
:1040C800E6EE867AD6ED036AE7EE267AFDEEE77A23
:1040D800CDED077ABDF91C2029F817208A4202DCA9
:1040E800824202DB0A461146024601371036104664
:1040F800D0E7784F784E3B68091A13F4805F0FFABF
:1041080081FE32D0754B764A1B7859075EBF049BF7
:104118001B8AA8F8D030734BB3F90650049B198A50
:10412800714B1B68D8880B1A9D4204DCB2F9000059
:10413800B6F9002006E00844854206DBB6F902001D
:10414800B2F90220A8F8D05016E0B8F9D0108B4286
:10415800ABBFB2F90000B2F90220B6F90020B6F9F7
:104168000200ACBF0546154606E0564BB6F90020DE
:10417800B3F90650B6F90200DFF8408181B21FFAA0
:1041880082F9C9EB01030FFA83FAD645574B2BDDA9
:1041980007EE90EAB8EEE77A07EE90AAF8EEE77A2B
:1041A800012287EE878A1A704FF0000B98F80030CA
:1041B8009B4511D211AB079333F91B2000EE102A4F
:1041C800B8EEC00A20EE080A17F0E8FD079B23F8AE
:1041D8001B000BF1010BE9E702229AFBF2F309EB52
:1041E800030212B2114609E000221A7002239EFB54
:1041F800F3F309EB0302C91A12B209B298F80030B6
:104208000A933B68B6F80490B6F802C0378803F4FE
:1042180080530B931C4BB3F9D00007901C48008ABD
:1042280008903148006809902D48B0F800A0B0F80F
:1042380002802F48002603F1100E0A9B9E4280F050
:10424800398111AB07EE905A33F816B00EEB06130E
:1042580093ED007AF8EEE77A134667EE877AFDEE7B
:10426800E77A17EE904A944204DB8C4217EE903AB4
:10427800A8BF0B465B44069C1BB220F8023FDCB388
:104288004B4550DA4B4653E0B4140020280C00206C
:10429800B8500020F0350020EA0D0020E437002057
:1042A800500D002048010020F40D0020540D00207E
:1042B8001033002098320020180C0020C82A002053
:1042C80084330020143300203C0C0020CC14002040
:1042D800C4140020B4500020600D0020140C0020ED
:1042E8006C0F0020284E0020740F00202833002077
:1042F800FE0C0020000D00200B9C94B1099CB4F822
:1043080006B0089CCBEB040B079C5C4505DCBB4264
:104318000DDB5345A8BF53460AE0434503DA43463D
:1043280006E09F4203DC6345A8BF634600E03B46C6
:104338000380013681E7994200F11000764F27D2B9
:1043480007EE906AB8EEE77A07EE908AF8EEE76A29
:1043580007EE90EAB8EEE76A07EE90CA50ED045A05
:10436800F8EEE77A67EEA57A50ED065AE6EE257A7A
:1043780010ED056AE6EE867A50ED036AE7EE267AD6
:10438800FDEEE77A17EE902A29F811200131D2E7DD
:10439800B7F900100122934206D937F91200814279
:1043A800B8BF01460132F6E75C4A5D4E50885D4A67
:1043B800DFF868E11268BEF8008095F801905A4D60
:1043C80002F480540D94049CB5F90650278A346889
:1043D800564E0794B6F802C0B6F800A0BEF80460BE
:1043E80002F010020FFA8CF40E920FFA88F2089479
:1043F8000C920FFA8AF432B209940B92049C464A42
:10440800648A0A948142C8BF091A02EB4303CCBFED
:1044180009B200210F930F9B93424BD013880D9C38
:104428005B1A1BB222F8023BFCB1B9F1000F09D1AB
:10443800079CB4F806E0CEEB070B5D4502DDBE44F1
:1044480075450BDBBD4203DD634514DA63462EE098
:10445800B34214DB5345A8BF534628E0BD42CCBF46
:10446800BDF82030BDF8243021E0069C4CB132F96B
:10447800023C9E4203DC8342A8BF034617E0334652
:1044880015E0434503DB8342A8BF034600E04346EB
:1044980022F8023C0A9B9D42BDDA0E9B13B1BDF87F
:1044A8002C3004E0B9F1000FB5D1BDF8303022F856
:1044B800023CB0E71E4B1A7802F0040202F0FF0338
:1044C80022B91C4A144912781B4805E01B4B1A787C
:1044D800192A00F2448107E09342F7D230F81350CA
:1044E80021F813500133F7E7012303FA02F2144BC2
:1044F8001340002B00F03381124B0B491B8813F437
:10450800807F23D0104B1A88ADF844205A88ADF824
:1045180046209B8830E000BF000D0020600D002081
:10452800740F0020B4500020284E00206C0F00208B
:10453800140C0020C82A0020D4100020180C0020D9
:1045480032413003380C002014330020B94B1A884C
:10455800ADF844205A88ADF84620B74AB3F904307C
:104568001268ADF84830D20408D5B44AB1F906004B
:10457800128A904202DA5B42ADF84830B04DB5F984
:1045880002304FF47A7203F5E16353434FF46160EC
:1045980093FBF0F3A3F5FA73ADF85C30B5F900308E
:1045A80003F5E1635A43A74B92FBF0F21B88A3F291
:1045B800DC53ADF84A30049BA2F5FA721B8AADF8B9
:1045C8005E200A88D21AADF84C204A88D21AADF873
:1045D8004E208A88D21AADF85020CA88D21AADF86F
:1045E80052200A89D21AADF854204A89D21AADF855
:1045F80056208A89D21AADF85820CA89D31AADF83C
:104608005A30914A0023194622F813100133082B17
:10461800FAD18E4A8E4B126808928E4A1B7812681D
:104628008D490492072202FB03138C4DDFF818A270
:1046380009934FF064084FF00109099B8B4273D02E
:104648000B7833B11533DBB2089A09FA03F3134038
:1046580066D011F806EC049B11F9010C11F805CC91
:104668000EEB4E0703EB87074FEA4C06B7F902300B
:10467800B7F9002007909A1A92B211F9023C11F882
:10468800030C4FEA520B534393FBF8F3CBEB0303B2
:104698001BB2069328B918A8064436F81C0C2880C3
:1046A80019E018AB1E44B5F9004036F91C6CB44249
:1046B80008DA2044844203DC86423446A8BF044614
:1046C8002C8008E007DD201AB04203DB8442A8BF33
:1046D800044626462E80B86811F9046C069B09FA30
:1046E8000CFC10EA0C0FB5F900000CBF01244FF0C8
:1046F800FF3416FB00F090FBF8F0984209DB079BAB
:10470800534393FBF8F3CBEB03031BB28342A8BFDD
:1047180003463AF81EB004FB03B32AF81E3000E043
:104728002B800235073188E74A4B4D4ED3F800807D
:1047380000254FF00C09642709FB0583E8B293F9BB
:10474800064036F9023F14FB03F494FBF7F4348077
:104758000AF006FA01352044082D3080ECD1364D98
:104768003C4E2B6813F0200F34D000200AF0F8F9E3
:10477800354C0746208001200AF0F2F9334B60805F
:104788001B681B0626D5374B2D4AD3F8F4301B7807
:10479800012B26D1D6F80080B2F9021098F906301C
:1047A800B2F900205B424B434FF0320C93FBFCF311
:1047B8001FFA83FE98F912306FF0310113FB02F3F0
:1047C80093FBF1F17144791A93FBFCF37344218054
:1047D80018446080DFF888803368424603F160043B
:1047E8001AE0D6F800E0B2F902309EF9061011FB83
:1047F80003F1322391FBF3F1394421809EF91270C1
:10480800B2F9001017FB01F292FBF3F21044E0E753
:104818000C33A342118027D032F9020FB3F90010EC
:10482800B3F902708842F3DB87423946A8BF0146D4
:10483800EEE700BF84330020B4500020B8500020B9
:10484800180D0020000D00207C0C00203C0C0020DE
:10485800232A0020542C00202A2A00208615002014
:104868007A0C0020B4140020A04F97F90C3093B9AB
:104878003B78013B182B76D8DFE803F03675755086
:104888007575754975757575755B7575757575503B
:104898006875755B3600DFF8909200244FF01C0AAB
:1048A8004FF00C0B38F9023F00EE103A0AFB049067
:1048B800B8EEC00A0BF003FA17F070FA336800B2CA
:1048C8000BFB0433A8F80000B3F90020B3F9023059
:1048D800904203DB8342A8BF03461A460134082CE2
:1048E800A8F80020DED1C3E7BB791BB1804B0020BC
:1048F800598908E07F4B1B7803F0040303F0FF019C
:10490800002BF3D1084605F06DFF01242CE0784C0C
:104918000020E18805F066FF218905E0744C00203D
:10492800218905F05FFF6189012005F05BFF022402
:104938001AE06F4E0224A01E36F81410C0B20134DB
:1049480005F050FF082CF6D106240DE0684E03242C
:10495800E01E36F81410C0B2013405F043FF072CEE
:10496800F6D1042400E000242B68990602D43B7891
:10497800052B0BD15E4E2046318805F033FF601CB5
:104988007188C0B205F02EFF0234E4B22B68DA0257
:1049980006D4594C94F8D83173B10AF0FBF80BE0FF
:1049A800564E0025601936F8021FC0B205F01AFFEE
:1049B8000D2DEED00135F5E7237A042B05D113F040
:1049C800C9FE059BC01A4E4BD88013F0C3FE4D4B51
:1049D80007909B680BB14C4898474C4B4C4D1B6853
:1049E8004C4E13F4801F2B8860D003F400639FB2F1
:1049F800002F48D13F4B1B785B0744D54FF400602C
:104A080011F016FBD4F8DC21D6F800C011894FF458
:104A18007A734B434049098893FBF1F33F495B4262
:104A28001BB291F80080A4F8E031964638469EF80B
:104A380003109EF8002009B18A4204D8B8F1030F88
:104A480003D8022801D18EF803709CF80010914217
:104A580038BF8CF8002028491CF8012B01F5F179A2
:104A6800920129F8102001F5F4720EF1010E22F8D6
:104A7800107001F5F77222F8103001300328D6D1F2
:104A8800012381F8F4312B88180519D4194B1B78A8
:104A980003F0040303F0FF0593B994F8F4317BB1F4
:104AA80011F02EFB144B83F8F45109E0190507D5D2
:104AB800104B1B785A0703D54FF4006011F0A8FA81
:104AC800174A184B1568B3F906306A8993422DDBEB
:104AD800B3F5FA6FEC79BFBF9B1A6343C2F5FA646A
:104AE80093FBF4F4C4F1640421E000BF180C002027
:104AF8007C0C0020140C0020B41400202E4E002042
:104B0800EA0D0020FC3300208E1600203C0C00200B
:104B1800380C0020540D0020280C0020C82A002042
:104B2800500D0020284E0020AC1500206424B64B00
:104B3800B3F810E0B54BD3F800C033680593B44E12
:104B48001333069300226420B24B33F91290CEEB54
:104B58000903002B4FEA4208049305DDB3F5FA7FF9
:104B6800A8BF4FF4FA7306E0C9EB0E03B3F5FA7F5A
:104B7800A8BF4FF4FA73022A04932ED09CF80010B1
:104B880029B1049B9942B4BF5B1A00230493049B88
:104B980093FBF0F1A04B01F1010A33F9117033F9DD
:104BA8001AA0049B6FF0630B0BFB0131C7EB0A0AD9
:104BB80001FB0AF191FBF0F1394426F80810A91815
:104BC80009794B43954993FBF1F3954964339BB2BB
:104BD80063438C5493FBF0F32EE09CF8011029B149
:104BE800049B8B42CCBF5B1A00230493049B93FB6A
:104BF800F0F18C4B4F1C33F911A033F91770049B5B
:104C08006FF0630B0BFB0131CAEB0707794391FB8C
:104C1800F0F18A449CF9041049421AFB01FAA6F8FB
:104C280004A0A979002BB8BF5B424B437B4993FB97
:104C3800F1F37B496433887005997B4F895C59434C
:104C480091FBF0F1B954069F17F8011F06974B43E3
:104C5800764993FBF0F3F1458B54B8BF36F808302A
:104C68006B4FB8BF5B4202F10102B8BF26F80830AB
:104C7800032A7FF469AF674BB3F90650624BB3F868
:104C880012904D45984606DBB5F5FA6F2946A8BF40
:104C98004FF4FA6100E049464FF47A72C9EB01011A
:104CA80051436423C9F5FA626148B1FBF2F191FB03
:104CB800F3F2561C30F9124030F91600DFF850B103
:104CC8006FF0630606FB02115A4E001BB6F800A0EF
:104CD800414391FBF3F21444A4B21AF0400FFC8054
:104CE8003BD0554BDFED557AB3F904300A2293FBDC
:104CF800F2F3534A12889B1A1BB208EE103AB8EE28
:104D0800C88A28EE278AB0EE480A0BF009FCF0EEB4
:104D1800408AB0EE480A0BF0A1FBBBF9023007EE5F
:104D2800103ABBF90030B8EEC77A06EE903A67EE53
:104D3800407AF8EEE66AE8EEA67A20EE260AFDEE5C
:104D4800E77AA8EE870A17EE903AFDEEC07AABF83C
:104D5800003017EE903AABF802303A4B186810F072
:104D6800140F00F09E801AF4027F00F09A80364BF0
:104D7800364A1B7803F0100303F0FF0E43B1344B9F
:104D880092F9F52119687B8801FB02337B8088E062
:104D98001E4BDFF8D4C01B68D9789B7801B3BCF9E7
:104DA80000C0CCEB050B8BEAEB71A1EBEB719942E0
:104DB8000BDD28496545C8BF5B42C1F800E02344C4
:104DC800012182F8F611FB806BE092F8F631002B96
:104DD80057D0214B82F8F6E11968204B196050E052
:104DE800BCF900402C1B84EAE47EAEEBE47E9E45D1
:104DF8003CDD1B49022394FBF3F30B6019490123A3
:104E08000B7082F8F6313CE0B8500020740F002097
:104E180014330020284E0020163700200CFEFFFF18
:104E2800B0330020083700204433002080330020AE
:104E3800F0360020380C0020180D002035FA8E3C82
:104E48004A200020340C00207C0D0020B4140020DF
:104E58004436002040360020200D0020A40D0020FC
:104E68003836002048360020B820002092F8F63165
:104E78003BB1BD4B82F8F6111C68BC4B1C60BC4BA7
:104E88001970BC4BBC49B3F90020BC4B1B681344D8
:104E98000A884988934203DB99420A46A8BF1A4602
:104EA800FA80030739D5B988B54801F10E039BB2DA
:104EB8001C2BB44B4FF00A02B3F904302AD81AF06D
:104EC800040F27D093FBF2F20388D21A92B213B2DE
:104ED80013F1B30FB8BF02F5B473AB4AB8BF1BB236
:104EE800B32B1278C4BFA3F5B4731BB2140714D53F
:104EF800A64A126892F90420524212FB03F2059B5B
:104F08001B7A12B213FB02F21E2392FBF3F3CB1AA5
:104F1800BB8002E093FBF2F303809D4B1B787BB1CF
:104F28004D450DDC9B4A1378012B01D0192B01D17B
:104F380092792AB90E2B03D0082B1CBF0023BB8003
:104F4800954B1B689C7894B31AF0030F2FD0934BA2
:104F5800DFED937A93ED080AB4EEE70AF1EE10FA62
:104F680021D90BF0D6F98F4BD3ED007A20EE270A22
:104F780016F014FFB0F5617FA8BF4FF4617007EE1B
:104F8800900AB8EEE77ADFED887A87EE270A0BF009
:104F980065FA07EE904AF8EEE77A27EE800A16F0EF
:104FA800FDFE00B200E00020FB881844F88098F865
:104FB8000E30002B60D07D4B7D491B78002B3AD0FA
:104FC8007C4BD3F81421B2F57A7F05DB44F62063D5
:104FD8009342A8BF134601E04FF47A73764AB1F9B9
:104FE800FA81126803F57A739BB2B3FBF2F3581C8B
:104FF80080B2A1F8F80100226D4C37F912E004F5EF
:10500800FE7C04F501753CF9121001FB08F191FBD7
:10501800F0F935F8121025F812E0C1EB0E014944F9
:105028002CF812100132042AE6D1604AA4F8FA31A9
:105038000021117004E0B1F8FA31013BA1F8FA310E
:105048005B4AB2F9FA41002C4FF0000312DDB2F9C5
:10505800F85102F5FE72594832F9131030F813006E
:10506800614391FBF5F1411A27F813100133042B22
:10507800F1D101E0A2F8FA31514B1B68980640F1D2
:10508800CD80338803F03003002B00F0C7803E4BFF
:105098001B78D90740F1C2803A4BDFED4A7AB3F961
:1050A8000430DFF83081484C0A2293FBF2F308EE13
:1050B800103AB8EEC88AF2EE048A28EE278AB0EED3
:1050C800480A0BF0CBF9B0EE409AB0EE480A0BF064
:1050D80027FA3E4B1B6893F80390B0EE408AB9F16B
:1050E800000F79D03A4FB8F90200B7F90250401BC7
:1050F80006F090FEC9F10006B04203DB4845A8BFA0
:10510800484600E03046284405B2B7F900A0B8F98F
:1051180000007D80CAEB000006F07CFE864203DCBE
:1051280081454E46A8BF064607EE905A0AEB06038D
:105138001BB2B8EEE77A07EE903AF8EEE77A3B80D2
:1051480027EEC96A68EE277AA8EE076AE9EE077AB9
:10515800C6EE286A87EEA87AFDEEE66AFDEEC77A03
:1051680016EE903A238056E0200D0020A40D002072
:1051780048360020BA200020600D00204436002068
:10518800AC100020180D00207C0D0020740F0020AA
:1051980000000020180C0020EC370020C434002048
:1051A8008FC2753CFC370020EFB6B044AC2000201D
:1051B800B41400208001002010330020B81600200D
:1051C800340C002035FA8E3C383300204C20002067
:1051D8005220002056200020B8F9023007EE103A7D
:1051E800B8F9003000EE103AB8EEC00AB8EEC77A47
:1051F80060EE496AE8EE076A28EE008AC6EEA87AE9
:10520800A9EE078AFDEEE77A17EE903AC8EE287AFB
:105218002380FDEEE77A17EE903A6380B54DA846F5
:10522800B54C94F82430013B2646082B00F208823E
:10523800DFE813F009004600DC000602C60154014D
:10524800A7010602F601DFF8B4B24FF4805300213B
:10525800ABF828300846049305F056FF824605F05F
:10526800B3FFBAF1010F40F0EB81049BA24F4FF05E
:10527800000984F8199040F2AB11ABF828300820E7
:1052880005F042FF052802D187F819A00DE0012892
:105298000BD104234A4611A9964802F049FF9DF80C
:1052A8004730AB2B04BF02237B7605F08DFF627E6F
:1052B800914B002A00F07581022283F82420AFE781
:1052C800DFF838924FF4805AA9F828A0637E022BA1
:1052D80014BF00274FF080470021372005F014FF46
:1052E8003946292005F010FF074605F06DFF002F0D
:1052F80040F0A681637E022B1CD1A9F828A039466C
:105308003A2005F001FF042381463A4611A979485D
:1053180002F00EFFB9F1000F07D105F055FF119B00
:105328001BBAC3F38073A37606E005F04DFF05F0C2
:1053380013FF75E7704B9F76704B4FF480521A85B8
:105348000021092005F0E0FE002840F08C8610219D
:105358006B4805F0B9FE8146002840F0848601219B
:105368007F2013F043FD0128074640F07C86022188
:10537800484613F03BFD824650B1012824D116213E
:105388003A2013F033FD01308002E06357461CE0F9
:1053980004212C2013F02AFD032107FA00FA4E20DD
:1053A80013F024FD0C218146362013F01FFD09F16E
:1053B800020307FA03F300FB0330A0FB0A01420AC9
:1053C80042EAC152E26300E04F4605F0FDFE002FBD
:1053D80000F03681494B4FF480521A8500210A208B
:1053E80005F092FE0028A0D1032374E0102111A833
:1053F80005F06AFE002840F023819DF844309DF8AE
:10540800452084F828309DF8463043EA0223638516
:105418009DF8473084F82C309DF8483084F82D30BA
:105428009DF8493084F82E309DF84A3084F82F30A2
:105438009DF84B3084F830309DF84C301A0903F051
:105448000F0384F832309DF84E3084F831209DF8EF
:105458004D201B0443EA02639DF8502013439DF836
:105468004F2043EA022363639DF851309DF8522090
:105478001B01DBB243EA121303F5FA6302F00F02D1
:10548800238784F83A2005F09FFE1B4B9B7E73B957
:105498001A4B4FF480521A854FF40071102005F012
:1054A80033FE064605F090FE002E7FF440AF2B88B1
:1054B80023F040031B041B0C2B802B8823F038039C
:1054C8001B041B0C2B802B889BB243F040032B80C2
:1054D80000232362042384F82430A1E6094B93F8BF
:1054E8000C1299B1084B1A68920340F1B88000F089
:1054F80046BD00BF00380040CC38002000040048FA
:105508000C390020B414002000000240207A2268E0
:105518004FF4807302EB0022994802F009FE237AC7
:105528000133DBB2022B237240F08A8000219448B9
:1055380002F028FE0021924802F024FEFF21904844
:1055480002F020FE00F01F0005280ED1072386F880
:1055580024308C4BF4681B688B497361002C7ED017
:105568000B690A684968012043E005F0F5FDE46825
:105578008549002C3FF454AE0B694968002201208C
:105588004CE013F023FC002853D000222276226A34
:105598007D4B012A08D9013A1A62DA690132DA61C7
:1055A800082283F824204BE004D105F069FD022885
:1055B80046D102E0042283F8242005F005FE3FE0EE
:1055C8004FF400712068704F05F07EFD012812D05D
:1055D80002D3022815D033E005F0F6FDFC68042359
:1055E800002087F824303876002C38D03B693A6898
:1055F8007968A04724E0634B1A687B696433934257
:105608001ED205F0E1FD05F0A7FDE4685E49002C17
:105618003FF406AE0B69496800221046A047FFE533
:1056280013F0D4FB28B105F0CFFD042384F824300F
:1056380006E0544B1A686369FA339342FFF477AE75
:1056480096F82430013B022B09D84E4B4E4A1B6872
:1056580052699B1AB3F5FA6F01D905F07DFD96F8EA
:105668002430042B02D0082B40F0A281474C05F0CF
:10567800EDFE6378022B01D1254647E0032B40F06D
:105688009781434806F07FFE424806F07CFE424878
:1056980006F079FE414889E16268A3682769991A8A
:1056A800B94284BFEA602961032840F0578126691E
:1056B8000623652EA37029D9A6F164032B6105F092
:1056C80055FC653E4042064001362E6105F04EFC11
:1056D80086421BD9DFF8CC80EF68D8F800003E443A
:1056E800023086422CBF0020012005F049FC2A69BF
:1056F800D8F808306F6053435B0248F8903C48F88C
:105708008C3CAE6048F8747C0523AB70A378072BFB
:1057180000F24E81DFE813F008004800C400CF0013
:10572800D1002E013E0148010023092211A9184683
:1057380005F056FD012840F03B81119B93F8FE21AE
:10574800552A40F03A8493F8FF21AA2A40F035847C
:1057580003F5DF7203F5FF73906860B11179A1F169
:105768000B06012E03D901F0F701062903D10C4BD2
:105778001860012316E110329342EDD100F01DBCF0
:1057880000380040644E0020CC380020F43B002054
:10579800AC4D0020984C0020DC4C0020204D00200F
:1057A800F04D0020FC4D002041F2FC160023092298
:1057B80011A9A059B24D05F013FD012840F0F88059
:1057C800002311982B70B0F80B30B3F5007F40F030
:1057D800FB83037C022B40F0F78390F8FE31552BB6
:1057E80040F0F28390F8FF31AA2B40F0ED83C38993
:1057F800AE5905F590521E441660477B41F21022BF
:10580800AF507A1E7F2A00F2DF837A4237EA02021B
:1058180040F0DA837A0241F21821013A6A50C58AC7
:1058280005B9456A41F20422A550B0F81110954A0D
:10583800490101F2FF1149121160B0F8132002B9B1
:10584800026A6D000B442B44D21AB2FBF7F341F203
:1058580008278B4AE35140F6F477BB4202D801236C
:105868001370B1E34FF6F477BB4294BF02230323CE
:1058780013702378824A032B41F21C230CBFC06AA1
:105888000020D050731841F20C222B44A3507E4BB9
:105898001B780BB915F0E0FEA3780133A37087E0FD
:1058A8000323A370794B0093052230237849794864
:1058B80006F0F2FD7CE0774878E005F057FBDFF86A
:1058C800DCA106460AF1080B207D10B1012818D08A
:1058D800FBE7DAF80020704902320DF05FFB03287D
:1058E800F2D801A353F820F0B9590008015900086B
:1058F800B9590008B756000863680133A36001234B
:1059080036E0DBF80030D4F804E04FF0FF325B02F9
:10591800B2FBF3F3614A13EB0E0012684FF0000874
:1059280048F100014FF00009494502F1020208BFA1
:10593800904238BF0EEB0302594902200DF02EFBAE
:105948000328C1D801A353F820F000BFB9590008B3
:10595800A1560008B9590008A15600080133B3FB45
:10596800F6F206FB12320AB133449B1A6360002335
:105978002375A9E7A268484901200DF07CF90128A0
:1059880001D10623C1E6022812D141F2B412012343
:10599800A35417E300213F480DF03AF90128F2D14A
:1059A800A3780133A370B1E603230BE306F0EBFC05
:1059B8003C4B1878002840F0CD823B4D2B681E03E5
:1059C80040F1C882394E3378033B052B32D8384B27
:1059D8009B7823B1022B1CD10346294908E0354B9B
:1059E800D3F8100213F00EF913E00133082B10D08E
:1059F80003F5817201EB0212D279D407F5D41A01AA
:105A080002F581520632525C012A98BF00F50070F7
:105A1800EBE7284AD2F8143292F818120B44B3F57F
:105A2800807FA8BF4FF480738342D4BFC2F814327A
:105A3800C2F8140233781F4C023B092B00F27F8214
:105A4800DFE813F00A00110147016A01800199019A
:105A5800C601390256026102154B9B78022B40F0B1
:105A6800F780144D084F94F83032052B00F2678206
:105A7800DFE813F0220065024B008000A200EE0070
:105A8800F43B0020144E0020D44D0020D9B6000865
:105A98000FF70108644D0020F83B0020FC4D002062
:105AA800FC3B0020E80B0020B4500020EE10002042
:105AB800670F0020B4140020B8484378032B014630
:105AC80040F03D8241F2A4030122C35C84F83022F5
